:020000040000fa
:080000004002040000000000b2
:020000040000fa
:10000800101900001018000014180000181800003b
:100018001c18000010190000101900001019000029
:1000280020180000241800002818000022020000f0
:1000380010190000301800003418000038180000ab
:100048003c18000040180000441800002c02000072
:1000580036020000501800001019000010190000a6
:1000680054180000581800005c18000060180000c0
:100078006418000010190000681800006c180000cf
:10008800101900007018000074180000781800009b
:100098007c180000801800008418000088180000f0
:1000a8008c180000901800001019000010190000aa
:1000b8001019000094180000981800009c180000ff
:1000c800a0180000a4180000a8180000ac18000030
:1000d800b0180000b4180000101900001019000032
:1000e80010190000b8180000bc1800001019000012
:1000f80010190000c0180000c418000010190000f2
:100108001019000010190000101900001019000043
:100118001019000010190000c8180000101900007c
:1001280010190000cc180000d0180000d4180000e6
:100138001019000010190000101900001019000013
:10014800d81800001019000010190000101900003c
:1001580010190000dc180000101900001019000028
:1001680010190000e0180000e4180000e81800006a
:10017800ec180000f018000010190000f418000036
:10018800f8180000fc18000000190000041900000d
:08019800081900000c19000019
:020000040000fa
:1002080000000000000000000000000000000000e6
:1002180000000000000000000000000000000000d6
:100228000000000000000000000000005e15000053
:1002380000000000000000000000000000000000b6
:100248000000000000000000000000003003000073
:10025800ca030000000000000000000000000000c9
:100268000000000000000000000000000000000086
:100278000000000000000000000000000000000076
:100288000000000000000000000000000000000066
:100298000000000000000000000000000000000056
:1002a8000000000000000000000000000000000046
:1002b8000000000000000000000000000000000036
:1002c8000000000000000000000000000000000026
:1002d8000000000000000000000000000000000016
:1002e8000000000000000000000000000000000006
:1002f80000000000000000000000000000000000f6
:1003080000000000000000000000000000000000e5
:1003180000000000000000000000000000000000d5
:1003280000000000000000000000000000000000c5
:1003380000000000000000000000000000000000b5
:1003480000000000000000000000000000000000a5
:100358000000000000000000000000000000000095
:100368000000000000000000000000000000000085
:100378000000000000000000000000000000000075
:100388000000000000000000000000000000000065
:100398000000000000000000000000000000000055
:1003a8000000000000000000000000000000000045
:1003b8000000000000000000000000000000000035
:1003c8000000000000000000000000000000000025
:1003d8000000000000000000000000000000000015
:1003e8000000000000000000000000000000000005
:0803f8000000000000000000fd
:020000040000fa
:0804000000180000fa5701008a
:020000040000fa
:10040800000000000c180000fa5701000058010015
:020000040000fa
:080418000000000000180000c4
:020000040000fa
:10042000001800000c180000fe57010000580100e1
:020000040000fa
:10043000fa57010009000000ffff00009df20000d4
:040440007f3f0000fa
:020000040000fa
:100444005008af002c180400000000005e150400e2
:10045400000000005028af0048180400000000000d
:1004640030030400000000005048af004c180400a2
:0c04740000000000ca03040000000000ab
:020000040000fa
:100480000f9720000e7f24000e018800000000005e
:10049000000020000000e000020032000001200007
:1004a0002002880014000700d60007000000e000ca
:1004b00003003a00e0312100010020000200370073
:1004c0000000200001002000810f700001003200b8
:1004d00014000700000020000000e00002003200cd
:1004e00000000200000000000809020000000000f7
:1004f0000040da000000fe004440a9000001200096
:100500000000e0000300320000002000a00188008d
:100510004440a800000006008a1f78008b1f780066
:100520000000060091018800800478000000eb00c4
:100530001a003700e284440032a0b4009905ba00e2
:10054000e284440032a0b4009906ba00e284440078
:1005500032a0b4000006eb00476fde00fd07b200da
:10056000636ce10003003a00ebff07000000eb00c2
:100570000a003700606ce10004003a00005deb0007
:100580008b05e900fdff3e00040037006168e100d3
:10059000010032000086eb000b00070019c7ba000b
:1005a0001905ba000e04e00003003a000a00e0005a
:1005b000e0ff3a0000000600fe07b2009e0188003e
:1005c0008a047800f5ff3700395dba008b05e90031
:1005d0000c003200295dba008b05e90008003200ea
:1005e0000c00e00003003a00e284440032a0b400b2
:1005f000f5ff370019ddba008b05e900faff3a0074
:100600008904e800e184440032a0b4000000060040
:1006100078160400000000000a1704000000000023
:100620005e150400000000000c1104000000000032
:100630003e100400000000008615040000000000c9
:10064000b4110400000000003003040000000000aa
:10065000ca03040000000000c00f040000000000f6
:10066000809fbe00829fbe00849fbe000800fa00eb
:10067000200020008560a9003c0037003211800076
:10068000111180000118a300020032002222a900eb
:100690000040a0000128a300010032000050a0008b
:1006a0000138a300010032000060a000d134240012
:1006b000c1bf9f0051052500d1bf9f008134240098
:1006c000e1bf9f005120b000f1bf9f00c34a8000ee
:1006d000e7816100e882570065c27900844f5100cc
:1006e0000a003a008300e800c14a8800e88f500001
:1006f0000d003a000070a000019320002143880003
:100700004194200031438800070037008001eb004e
:10071000c34a88008ff99700834f510002003a00c6
:1007200011002000c14a88008149800063932000a5
:10073000938f5000020039000040a0000b003700ea
:10074000914980008258780091498800c249800010
:1007500093014100838f50000100390092498800c5
:100760001200200001932000910841002202ab00fa
:10077000c2ff3a00114a800000807000104a8800d1
:100780000080fa004f02be004f01be004f00be00c5
:1007900000400600809fbe00821f78008580a9006f
:1007a00013003700204a80000000e00012003200f1
:1007b000404a8000b080fb0021118800404a880038
:1007c000614a8000a294200012814000820f5000f4
:1007d00001003900414a88001100200040942000a7
:1007e00010881000b04a80000000a000b04a8800c5
:1007f0002322ab00ebff32004f0178004f00be0018
:080800000040060000000500a5
:020000040000fa
:100808003ea90000bd97000001d4000019a800000f
:100818005d5f0000e60f000036d6000071aa0000f8
:020000040000fa
:10082800cf05b000889fbe008a9fbe008c9fbe0087
:100838008e1f780000057800204380000000e0004b
:1008480002003a00000d780069023700028021009a
:1008580003002000d28f9f00e38f9f000204be0098
:100868008005eb0021438000110778001a01780009
:100878008001eb00e80f5100e08f590054023e0060
:10088800026001000800370033003700bf0037005e
:10089800e50037001a01370077013700a701370054
:1008a800d0013700eb013700f0022000800f57001d
:1008b8004e02360002032000e0fb2f000f0040002c
:1008c800a810020000000000e0fb2f000f0040000d
:1008d8000006eb003041780021c4b300814f51007d
:1008e80011003a009040900021c3b200c3c4b30085
:1008f80090c1690083c07000a041900002c16900e6
:1009080082c0700008003a0031438000110178006d
:100918000000eb00ac100200000000001d002000e9
:100928000d0d7800050037000c06e800c102200014
:10093800810f5600e7ff3a008006eb000c017800b3
:10094800214380000000eb00ac1002000000000012
:1009580013002000de0137008001eb008006eb0069
:10096800f0022000800f5700d90136000203200052
:10097800e0fb2f000f004000ac1002000000000058
:1009880003032000e2fb2f000f0141006000b800c4
:100998006213020000000000400d9800510d9800fd
:1009a8001fa09700afa097008002b1000180b1009e
:1009b800200d9800310d98001c0020004c1598005f
:1009c800e0fb2f000f004000e8004000020120007b
:1009d80040402800d6160200000000000000e00099
:1009e80006003200a0fe2f0040159800800020006d
:1009f800000d78008c017800b5013700e406450049
:100a08003fa89700cfa897005fa99700efa9970084
:100a1800809ebe008296be00240120008000eb006c
:100a28000801be00c0fa2f000f004000901202001b
:100a380000000000000020000000e0000400320078
:100a4800d02c2100ef989700808f500004003200ce
:100a5800e0fd2f000f00400074815700140037009c
:100a68002a029000ba0290004a039000da0390002c
:100a78006f909700ff9097000f9997009f999700a4
:100a88000020e10001a8e10002b0e10003b8e100a4
:100a9800efff310090fe2f004015980070002000f5
:100aa800000d78008c0178008306780088013700f3
:100ab800ffa89700d0807000f1af9f00820f500010
:100ac800fbff3a000100e000e9003a00a0702100b5
:100ad8000000e0000d0032002a099000ba099000d9
:100ae8000204b0000380b0000d027800314380009a
:100af800204380000a170200000000000000e00008
:100b080002003c0050fe2f00ff003700db4a800047
:100b18000b00e0001200320040092000420a2000c9
:100b2800000151008000eb003817020000000000af
:100b38005028ef005228ef000000eb00d04a880050
:100b4800f81602000000000020438000561402003e
:100b5800000000003043800056140200000000002e
:100b68000000eb00301598006011b800620d980085
:100b7800730d98000080eb0010159800800020008d
:100b88001005980020002000000d780030438000f8
:100b98001000e00007003a0031f12f00c18f9f00dc
:100ba8002200200081f92f008f80400048120200a7
:100bb800000000000b00e000010032000060fe00b1
:100bc8001a0090006808b400703eb100ea0890006e
:100bd8000100400040438800600220000a004000f5
:100be800d80b020000000000000678001300200067
:100bf8008006eb000c00e00035013a0010f12f00f0
:100c0800c08f9f002200200081f92f008f804000b4
:100c1800304380004812020000000000204380009a
:100c2800100778002c15980040002000000d78006f
:100c38002a089000ba08900043022000830f500051
:100c4800e08f580006003e00400220003015980052
:100c580060002000100598001300200029003700cc
:100c68006a099000fa099000e00f5100e08f5900de
:100c780006003a008000200030159800300020005f
:100c880010059800130020001e003700f03d2000da
:100c98006828b4002001200030159800800f570004
:100ca800010036003e159800ba109000000320009d
:100cb800808f500001003600301598003a139000dc
:100cc8006132b800820f5200838f5a000300390046
:100cd8006a0890003015980005003700620020006f
:100ce800110009000283d800010053003015980054
:100cf8005000200010059800130020000100370064
:100d08008001eb002a609000e84f40000b003a0099
:100d18002a1090002a0a9000ba0a90006103b800cd
:100d2800840f5300858f5b000100360004007800b3
:100d38008006eb008e0f5000e5003a00020220000a
:100d48000200e0002100320030438000b000900033
:100d580090805000e58f50001c0036002143800031
:100d6800b1009000810f51000100360001017800a8
:100d78002a12900084805000828f500003003100b6
:100d88003a119000840f510010003600f3cf500044
:100d980001003a008100e9004809de00f34f5100e4
:100da80001003a000110b1000482400024159800a7
:100db800c18f9f002200200081f92f008f80400002
:100dc8004812020000000000130020003a119000b1
:100dd8008006eb00820f5700bd0039002a109000f2
:100de80002005000201598002a0e9000ba0e9000bc
:100df80021438000e0fb2f000f004000ac100200f0
:100e08000000000000065600e0865e002c0d9800e9
:100e18003d0d9800ba119000e2fb2f000f01410030
:100e28004a089000da0890006213020000000000ef
:100e3800400d9800510d98001a009000000d7800a0
:100e4800e30f5000a0003a007c0045003a119000e2
:100e5800e1fb2f008f8040001c16020000000000fc
:100e6800fa5890003a60900000c070009600320076
:100e7800b0fe2f00240037000b00e0000100320014
:100e88000060fe000003eb006022b800ba11900079
:100e9800e2fb2f000f0141000a1090009a10900009
:100ea8008e0a0200000000000006be00e4f92f00d0
:100eb8000f024200ba119000e2fb2f000f0141001f
:100ec8000a1090009a109000b80c02000000000070
:100ed8000c1598001d159800ba1090006a0990002a
:100ee800fa09900001015100e0815900620d980053
:100ef800730d980031002000010d78000000e0001b
:100f080007003d0080fe2f0040159800700020006b
:100f1800000d780013002000830678006c0037006d
:100f28000000e0006800320070fe2f0040159800b5
:100f3800130020008306780065003700f03d20008c
:100f48006828b4004a099000da099000c0f12d0021
:100f580041142200800f5100818f59001e003a0071
:100f6800d02c2100e09f9f002a009000ba0090003a
:100f78004a019000da019000e0979f00f1979f00e6
:100f8800829f9f00939f9f005fa89700efa89700fc
:100f98007fa997008fb19700a09f9f00b19f9f00e6
:100fa800c29f9f00d39f9f000003eb00d5ea2d004e
:100fb8000002eb0023012000c2fa2f000f014100bc
:100fc8000800be008e0a020000000000a6160200fb
:100fd800000000000200370060fe2f004015980056
:100fe8006428ef006828ef0080002000000d7800da
:100ff8004a109000cf80de00c000dd000000200015
:10100800d08f9f00e18f9f0042002000a1f92f00a0
:101018008f8040003043800048120200000000002a
:10102800a2428000b342800030438000d812020000
:1010380000000000a00f2000614380000008b800f5
:101048000e1502000000000013002000830678003f
:101058001f0037008001eb008006eb000e00e00067
:101068001b0032002a099000ba0990006172b8008a
:10107800820f5200838f5a0005003900020778005a
:101088000000eb00ac100200000000006428ef0034
:101098000e017800214380000000eb00ac10020034
:1010a800000000002a089000ba0890000e005000c6
:1010b800e0805800200d9800310d980013002000a2
:1010c8008006eb000200370013002000830678003a
:1010d800f3b79f0036150200000000000002be00b2
:1010e800ffb197000300e00002003200000d9800f5
:1010f800110d98000a0990009a0990000201520007
:1011080083815a006a009000fa009000800f510015
:10111800818f590021003600c0fe2f00401598002d
:101128001a80e900e30f500018003e00000020007c
:10113800c1fe2f00d08f9f00e18f9f00420020004a
:10114800a1f92f008f80400030438000f4b79f0042
:1011580085bf9f004812020000000000a2428000e4
:10116800b342800030438000d81202000000000023
:101178000081eb00214380000000eb00ac1002006e
:10118800000000008fba97007fb29700040d980006
:10119800150d9800000deb006428ef002043800037
:1011a8000000e000030032008b867600adfd3a00b7
:1011b800090037000b00e000060032006a019000c9
:1011c800fa01900030438000d812020000000000ad
:1011d8000000fe00000deb0000f0a7000000ea0090
:1011e8000000e9004f00de00010037000000eb00be
:1011f8004f0778004f06be004f05be004f04be00e3
:08120800cf05b1000000060053
:020000040000fa
:101210000800fa00889fbe008a9fbe008c9fbe0017
:1012200077040700ba0507005a29ef006828ef0085
:101230006428ef005c28ef005028ef005228ef00f0
:10124000a10920000001eb0080072000337420007a
:10125000804978008149780082497800123a8000fc
:101260000200a0007105200060042000237420000b
:101270008049780081497800824978004207ab00b4
:10128000feff3a004427ef00a109200012002000d1
:10129000800720003374200080497800814978005d
:1012a00082497800123a80000200a00071052000f7
:1012b0006004200023742000804978008149780070
:1012c000824978004207ab00feff3a00103a8000e6
:1012d0004c00de0065006000e10f500004003a00a1
:1012e0007f004000123a800082006000fdff320063
:1012f00000402200410f2000c0428800d1428800f7
:10130000c0428800d142880004e82300a44288003b
:101310005628ef0000012000604388009305070075
:1013200000fc2f002535800085006000c102b3005d
:1013300021358800f2368000820060005100b30041
:10134000f1368800a606b6000040a00030358800bf
:10135000f00f2c00ce06b6000030b30070368800c7
:10136000300320002d02070000932000f04a88007f
:10137000208d20000008eb00c4428000d542800090
:10138000f446880005478800a2428000b3428000ee
:101390004518dd00cb10de00810070004510dd0037
:1013a0006022b8006033b8000002520081825a0007
:1013b00060035b00e0835b0081672100c091200037
:1013c000c3030700a90507000005be0080bf9f00fa
:1013d00091bf9f000006eb00bdff2f000060fe00e4
:1013e000a20507000004be00c0428000d142800078
:1013f000c409de004c0add004401de000201720077
:101400000a0254008b825c00820f5200838f5a00c4
:101410000b0036000a0541008b854900e21680006a
:101420004211de000281ea00610161004211dd002b
:10143000e51680008581660083017100e31688004f
:101440000fba97009fba97000401540085815c0091
:10145000ce0add004200de0000807200c208de001d
:10146000800f5100818f5900190036000c06e800ea
:101470006408e20011003a000c08a30012003a00d0
:10148000a08a250011202000e0b79f00f1b79f003f
:1014900042002000f480570040942000fc03070025
:1014a000a2428000b3428000409420004004070024
:1014b00088bf9f0099bf9f000500370088bf9f002d
:1014c00099bf9f000200370088bf9f0099bf9f000f
:1014d000f04a8000900890000100e0000400320013
:1014e0008000eb00110898000006eb0007003700b1
:1014f000ea0f560005003600d10407000000e000a6
:1015000002003200dc42a9001b0607000140fe0079
:04151000b2ff3700ef
:020000040000fa
:101514000000fe006022b8000300e000a1003200d9
:10152400c80bde009f003a00573e2000871f78005a
:101534003200f800889fbe008a9fbe008c9fbe00c8
:101544000178a30006003a0004d8a3000200320088
:101554006147af000160a20004c0a7000160a000c1
:101564003b0024002d00200004f0a0000c0020000b
:101574000c00e0000600320004f0a1000b0024007f
:10158400e8cf4000020032004d0020001b00240080
:101594000600fa000d06d0008c8747008e03780001
:1015a4008b1b7800809bbe000f0478008004eb0046
:1015b400dcea2d000c28e10011003200c22add0013
:1015c400030032008502e90005800900b61f780097
:1015d4000600200096018800452020008600200097
:1015e40061e7af00feff370002003700951fba0025
:1015f400b59fba000683e900fcff310088845700d8
:101604006808f8006828ef00550037008f05780057
:101614000d06e9000c800900809feb000300e9003f
:1016240000800900b25d7800038155008001eb0061
:101634008d00d0000f00a7008000eb000d00d1004a
:1016440002000900b25b780080dbeb000000e900d7
:10165400fbff3a00818757000d06e9000c80090062
:10166400c70f48003a003100c705780047057800e5
:101674008d00450060864d006403540089037800a2
:1016840064034300e8835300070039003608e1008f
:1016940036e0e100faff34003650e10036d8e100cc
:1016a400f8ff31002a00370000002000a10f2000bd
:1016b4006203470004f0a7003600be0091018800d1
:1016c4008d00d1008e0378000676200061e7af001c
:1016d400feff370002000900371b78003708bb0003
:1016e4003798bb008100e900fcff3a006a32210010
:1016f400feb097007fb897000100b8008a0350003d
:101704000a0020001a00a0000000eb001a00a70045
:10171400feff370004a0a7000060fe00421702008d
:1017240000000000070b7800b109b000010b78003d
:1017340061e7a800000000000000000004b8a30056
:1017440061e7af00feff3a005817020000000000f6
:10175400e20347000000eb00979b4600971b4800fc
:101764000d00d1000080460080815100b2ff31009d
:1017740080814100a5ff3a0000ff23006027b600e6
:101784008027eb001e009000ae0090000080fa005d
:101794004f06be004f05be004f04be003200f900e4
:0c17a4008027eb006828ef000000060022
:020000040000fa
:1017b000ee874700889fbe008a9fbe008c9fbe00b8
:1017c0008e1f7800000678000d4020004e438000f8
:1017d0006828ef000020200001002000b0b79f0023
:1017e000c1b79f007a805700f81502000000000082
:1017f000d0b79f00e1b79f00f2b79f0083bf9f0063
:10180000890020000004eb002e003700cfea97008b
:10181000e9cf42000500360010002000680d0200ec
:10182000000000000000eb004b0037007fb5970080
:101830008fbd97000d00e9007fb397008600600020
:10184000050032008000eb000a0070008b80700001
:1018500061054000e08548006168b8005fb197000d
:10186000efb197000000410081804900d0b79f0090
:10187000e1b79f008a0f50008b8f5800100039008d
:101880004020200001002000bfb29700808f52004e
:10189000300031007a805700f81502000000000087
:1018a000d0b79f00e1b79f00f2b79f0083bf9f00b2
:1018b000800f5500818f5d00010036000804e900ab
:1018c0000804e8001c007800800f5400cfff3900a6
:1018d000000ee8005fb09700efb09700ac15020073
:1018e000000000000000e00016003a005fb2970020
:1018f000efb297004200200003002000c02020002b
:1019000001002000a4130200000000000000e0001d
:101910000c003a00e07b2000000747004e4388009f
:101920005fb09700efb09700e614020000000000df
:101930000000eb00680d0200000000001000200015
:10194000050037008904e900deff3a00100020009e
:10195000010037000000eb004f0778004f06be0083
:101960004f05be004f04be00ef00b10000000600ae
:020000040000fa
:101970001600fa00889fbe008a9fbe008c1f780068
:10198000820478000305780004047800827f250033
:101990001300200082b79f0093b79f000fb19700fc
:1019a0009fb1970092bf9f00a3bf9f000800e00077
:1019b00001003a007c8457000006eb008005eb0034
:1019c000880278000b0278008a017800090178000b
:1019d000aa0e0200000000000000e0003600320005
:1019e0001802be0082002000030020000021200019
:1019f00001002000a4130200000000000000e0002d
:101a00001e003a001802be001fb89700afb897003a
:101a1000e00f5000e08f58000f0032000400be00bd
:101a20001fb99700afb99700820f5200838f5a00f9
:101a3000090039000b00e0001c003a00284190002a
:101a40009b0020000204e000010035004b00200054
:101a5000a8049000daff3700820020000300200075
:101a60004020200001002000a4130200000000001c
:101a70000000e0000f0032001c002000e30f5500c2
:101a80000d00360028019000020555006305550041
:101a90000a85440024002000050020003800420090
:101aa000a8804a00e3044100c5ff3700ccff2f00a7
:101ab000010037000086eb000c0078004f0678002c
:101ac0004f05be004f04be000080fa000000060073
:020000040000fa
:101ad0000a00fa00889fbe008a9fbe008c9fbe004d
:101ae000300798004f079800a00020000100200058
:101af0004a170200000000000002be0080057800c6
:101b00008080e8000100a100818747004e05900019
:101b10008000eb0082212000030020000a007800f2
:101b20009012020000000000330037000040eb007c
:101b3000504798000a007800b0407800214798008c
:101b4000b040780031479800104078004047980036
:101b500063004500104f78004a40900010479800fd
:101b60002a409000e84f400004003200140020009a
:101b70000004e00005003d00010037008400200063
:101b80003e0090000000e000160032001e067800c3
:101b9000e60645001e049000ae0490008002eb00b3
:101ba0008c0178000d0178000800be00aa0e02002a
:101bb000000000000000e0000a003200f03d2000bc
:101bc000404388000003eb00d5ea2d000002eb0043
:101bd0008c0178000d0178000800be00420f020061
:101be000000000001e00780080855500e685550045
:101bf0006600400000054500e68f5500cbff3e0023
:101c00006828ef00ce0790004f06be004f05be00cb
:0c1c10004f04be000080fa000000060037
:020000040000fa
:101c1c00889fbe008a1f780000057800880020008d
:101c2c000900200010c0b3000a00e00001003400dd
:101c3c000040eb00610060004500dd00880078008a
:101c4c000150a1000104700009a0a00009c0a0006f
:101c5c0009f0a00070a7a8009580a9009560a900c4
:101c6c008560a9008580a90070a7a900c410210077
:101c7c008001eb000006200001002000000178002c
:101c8c0021872000009320005c1602000000000059
:101c9c000002eb00e3032100000220000100200001
:101cac0000017800c18f2000409420005c160200d7
:101cbc0000000000b0002000004a8800c000200096
:101ccc00a04a880060582100f0498800401b210080
:101cdc00904a88000af0a7000a05ea004a11880019
:101cec00081188001911880008f0a000081188005c
:101cfc001911880011002000efc0600000cfb30064
:101d0c00a20a2000124178000040610001407000de
:101d1c00aae0b70021002000400020008008dd0070
:101d2c00a9c0bf006f40600001407000a9e0b7007f
:101d3c0052170200000000004f0578004f04be004f
:041d4c00000006008d
:020000040000fa
:101d50006022b800889fbe008a9fbe003200f80053
:101d60000500e0004220af008f027800e4824200cc
:101d70000178a30006003a0004d8a3000200320054
:101d80006147af000160a20004c0a7000160a0008d
:101d9000910188008000eb0061e7af00feff370093
:101da000030037000080e8004200af003220ec0062
:101db0008301e90029003900821a7800d10020004f
:101dc000f6ff2f00f70f2000324378008301e9006f
:101dd00005003900b24878008301e90003003900aa
:101de000b2437800020037000430a0000420a000b5
:101df0001004ba009084ba00889abe00869abe0089
:101e0000e30f62000b0032000683ea0087c3ea009a
:101e100008056300898563000400a7000a03be006b
:101e200008057300898573000410a7000a03be002b
:101e30006044b8000803530089835b00ec0f620024
:101e4000030032008003eb000430a700f60fb2005d
:101e5000ea82520087007300d2ff320096018000b0
:101e60008622780080227800010078003200f90094
:0c1e70004f05be004f04be00000006003d
:020000040000fa
:101e7c000000fe006022b8000178a30006003a00c2
:101e8c0004d8a300020032006147af000160a20039
:101e9c0004c0a7000160a000809fbe00829fbe000e
:101eac003200f800910188000300e0002c003200a1
:101ebc0067002000e39f5300060020000600e000ae
:101ecc0004003200f7bf9f000010a70004f0a00030
:101edc000010a1000000a10061e7af00feff370079
:101eec00ffbb97008080eb0090c0ba00901fba0037
:101efc00cf9f60000080e8006638e10005003a00e2
:101f0c0090c0ba00cf9f60009000ba00cf9f6000d5
:101f1c000080e8000000e0004220af003220ec001e
:101f2c0004f0a700e383530004f0a100cf8fea0074
:101f3c0004003a0007014100878151000700360078
:101f4c00e7ff370000d9eb008301e9000300320002
:101f5c008703e900fbff3a00e1ff37008f87e900b8
:101f6c003200f9004f01be004f00be008e0a040083
:041f7c000000000061
:020000040000fa
:101f80006ea8bf003a003200cfb89700cd08de003f
:101f900037003a004460af0035003a007008ac00ea
:101fa00033003a003600f8000000f8000000f800a6
:101fb0003400f800849fbe00869fbe005543800019
:101fc000e64a8000374b80009502130037831800e3
:101fd000978318004260ef00e486200084017800b7
:101fe000148210001b003200620042003028e10021
:101ff00030b0e10030b8e100f8ff3300849fbe004c
:10200000869fbe00b082100030831800b083180095
:102010004220af0094097800548a4200540a4b00d1
:10202000548a4b00e601210007002000869fbe0075
:10203000b01f7800b01f7800004006004260ef003b
:102040004f03be004f02be00100a98008000eb0054
:10205000e2ff37004f03be004f02be003400f9001c
:102060000000f9000000f9003600f9007008a9002e
:0c2070004f01be00cf00780000400600c9
:020000040000fa
:10207c00889fbe008a9fbe008c9fbe000004780023
:10208c000105780082047800830578002322ab00d8
:10209c0001003a008580a800890f5400210032000d
:1020ac0036150200000000000006be000000eb0028
:1020bc00d00598008580ab0003003200a03c2000c6
:1020cc002c17020000000000088154008800450015
:1020dc000b007800481202000000000000044400cd
:1020ec00890f54000d00320036150200000000006c
:1020fc000c0150008d815800c0428000d1428000fc
:10210c004e0add004200de0000007200c208de0054
:10211c00800f5100818f5900e6ff3900e003210048
:10212c00d0059800b04a80000020a000b04a88007a
:10213c00080078004f06be004f05be004f04be00dd
:04214c000000060089
:020000040000fa
:102150008002eb000f00a7008082eb00e0814000ce
:102160004220af0000000500851f7800801fe800b6
:10217000030090000200e1004200af00020078007e
:1021800023029000b3039000430390000703430031
:10219000cf00e9001a003200840353000038e10048
:1021a0004200af00e0035000030032008702e90064
:1021b00005800900b45878000620e1004200af0015
:1021c0004302900087035000030032008702e900b9
:1021d00005800900b4587800808050004f00e0006e
:1021e0000200320093091000a4019800e30390005c
:1021f0000700e0004220ae000700010000000600da
:10220000000242000620e1004200af000702520037
:0822100000017800f1ff370026
:020000040000fa
:10221800889fbe008a9fbe008c9fbe000004780085
:10222800010578008204780083057800890f54003e
:102238001d00320036150200000000000006be0036
:102248000000eb00e00598008560ab000300320059
:10225800003320002c170200000000000881540001
:10226800080045008b007800ac1002000000000058
:1022780000044400888f540009003200361502001b
:10228800000000000c0150008d815800c042800001
:10229800d1428000800f5100818f5900eaff390038
:1022a800c0102100e0059800104a80000030a0000e
:1022b800104a8800080078004f06be004f05be008f
:0822c8004f04be0000000600f7
:020000040000fa
:1022d000801feb00811f7800801f7800861f780028
:1022e000851f7800841f780090160200000000000f
:1022f00036150200000000008003eb004f825300ff
:10230000cf825b004f835b00cf0178001400320066
:10231000e7862000971978000b00330084194000ed
:1023200085994800861949008499be00861978006d
:10233000cf197800cf1978000000280080197800a4
:10234000f48b510000000600841950008599580054
:1023500086195900020009008019eb00f4ff3700cc
:08236000e487570000000600ad
:020000040000fa
:10236800889fbe008a1f78000004be00020578001e
:102378000800370008007800e81602000000000096
:102388000000e00003003200080890003c1602003c
:10239800000000001800e0000f00320036150200af
:1023a8000000000039015000a9815800ba0f5100ff
:1023b800aa8f5900efff36000700370036150200d4
:1023c8000000000039015000a9815800ba0f5100df
:1023d800aa8f590004003e002302ab00f7ff320029
:1023e80010002000010037000000eb004f057800c6
:0823f8004f04be0000000600c6
:020000040000fa
:10240000d822a900dc22a900d1c2a900d5c2a90006
:10241000d842a900dc42a900d862a900dc62a90068
:10242000d1a2a900d5a2a900d802a900dc02a90066
:10243000d962a900dd62a900d942a900dd42a90044
:10244000d922a900dd22a900d902a900dd02a90034
:10245000c1e2a900c5e2a900c1c2a900c5c2a90084
:10246000d9a2a900dda2a900d982a900dd82a90014
:10247000d8a2a900dca2a900d882a900dc82a90008
:102480006028ef006228ef005e68ef0000000600a1
:020000040000fa
:10249000e00140000200780020003200c3039000f9
:1024a000330390001302900093025300068343000d
:1024b000840353000028e1004200ae0005007800cc
:1024c000800278000538e1004200ae008702780003
:1024d0008503e9000200390007800900315a7800bd
:1024e0000620e1004200af004302900005035000c7
:1024f000030032008603e90007800900315a7800a2
:102500009309400094019800d3039000808050000c
:102510000700e0004220ae000700010000000600b6
:020000040000fa
:102520000400e00021003200800278006208b80058
:1025300036002000110009004688d8000001410043
:102540000380b0000000eb00970180009301880039
:1025500061e7af00feff37000100e0000c00320031
:102560000402e9000200a70006003700d25aba00b0
:102570000402e9000c00390002003700b25aba0028
:10258000925aba00c2daba000281e80032a0b4005e
:1025900063025200f9ff3100620242000200330080
:1025a00004800900b25aba009701880000000600b2
:020000040000fa
:1025b0000000e0004220af0010000500881f7800f6
:1025c000829fbe0000047800361502000000000063
:1025d000809fbe00f80390000700e0000700320073
:1025e00008007800e4805700688157000700010068
:1025f000e88757004f047800000006001000200014
:102600001800e000faff320036150200000000005a
:102610007fb99700efb997000200500083805800ff
:102620005fb99700cfb997000200e1000388e1008d
:0c263000f2ff34000000eb00edff37006b
:020000040000fa
:10263c005c08000002000000000000005e080000c2
:10264c000200000000000000600800000200000012
:10265c000000000062080000020000000000000002
:10266c0050080000040000000000000058090000a1
:10267c0002000000000000005a09000002000000e7
:10268c0000000000640800000200000000000000d0
:10269c00660800000200000000000000680800004e
:1026ac0002000000000000005e09000002000000b3
:0826bc00000000000000000016
:020000040000fa
:1026c4000080ea008180ea008500200006322800ac
:1026d40087db2e0010003700b25a7800b25278001f
:1026e40004006800840020008100d1000080d30031
:1026f4000200390006006800878068008100d1006c
:102704000080d3000200390006006800878068005a
:102714000402e900f4ff3a00e2815100eeff3b00bd
:10272400e2814100040032001240680044002000ad
:1027340003002000ecff37000080ea008180ea00fb
:04274400000006008b
:020000040000fa
:102748000400fa00881f78008a9fbe000003be00bc
:10275800b0bf9f00c1bf9f00020478000405be00ff
:102768000000eb00e00f5300e08f5b000b003a0025
:102778000f0037006a805700f815020000000000bb
:10278800800f5500818f5d0003003900820f5500ce
:10279800838f5d0005003900640454000800e000e0
:1027a800f4ff3a000000eb000100370010002000a1
:1027b8004f05be004f0478000080fa0000000600b4
:020000040000fa
:1027c8000000fe0061e7af00feff3700003b880015
:1027d800474380006828ef00013bb80061322100c0
:1027e800b709b00081005300421702000000000042
:1027f800313b88008000eb00373b880061e7a80088
:1028080000000000000000000200a60058170200a7
:10281800000000008003eb000208a30061e7af009e
:10282800feff3a0061c7a9000200a700581702007e
:08283800000000000000060092
:020000040000fa
:10284000a0802100010020006a015000e0815800b2
:102850000a0032001c170200000000004800de00e1
:10286000c808dd0001007000d22c210000005100da
:102870004220ae000000050010000500000020000e
:10288000010020000160a0001c17020000000000f1
:102890004c01de00c409dd00030171000080ea0084
:0c28a000f4ff200004006000f0ff37008f
:020000040000fa
:1028ac00110020000f00a7000100200042092000a9
:1028bc0007003700110020000f00a70001002000c6
:1028cc000000e0004220af0000000500420820009c
:1028dc00800990004818de004220ae000000050080
:1028ec00431ade000400a10004014100ef816100e5
:1028fc001218a5000080d200e08040001298ad00b4
:04290c0000000600c1
:020000040000fa
:10291000c9a2a800c962a800e982a800c9e2a9006a
:10292000cde2a800c9c2a900cdc2a900d9c2a900a0
:10293000ddc2a900c022a800e882a900ec82a9009b
:10294000e8a2a900eca2a900d9e2a900dde2a90051
:10295000d842a900dc42a9002d63a8002d83a8005d
:0c2960002da3a8002dc3a8000000060055
:020000040000fa
:10296c000000eb00e04a880000962000304b880005
:10297c000010200050438800e08620000000e0009a
:10298c00020032006e28ef007068ef00400020005b
:10299c002008880002a1ef00210020008008dd0043
:1029ac00a5c0bf006f40600001407000a5e0b700fb
:0c29bc009460a80005e1a80000000600df
:020000040000fa
:1029c8000000fe0061e7af00feff370092018000c3
:1029d800910188000308bb0092018800000088006c
:1029e800010088002004240060c7a80060c7ae006a
:1029f8001084b2000001eb00513e2000e6130200f3
:102a08000000000061e7af00feff370061c7a900c2
:042a180000000600b4
:020000040000fa
:102a1c00889fbe008a9fbe000004be0036150200cf
:102a2c00000000000005be008001eb000300e00088
:102a3c004220ae000140fe003615020000000000ee
:102a4c000a0250008b8258000401540085815c00fe
:102a5c00f6ff31004f05be004f04be00000006001b
:020000040000fa
:102a6c00574380000003eb0065962000e04a80008d
:102a7c001502780017001000b4001b0034011b0075
:102a8c0094011b00640252001520e100f7ff3a008c
:102a9c00440820000400b0001430a600000006001a
:102aac00e05521002c17020000000000ecff37005d
:020000040000fa
:102abc00811f7800829fbe008001eb00314b8000ab
:102acc00688168003119e800319949001189490081
:102adc0064015100324b8800410820000100b00015
:102aec001130a10001fc20000100e0004220ae00ea
:102afc00014001004f01be00cf00780000400600ed
:020000040000fa
:102b0c00881f78000004780018017800880078008d
:102b1c000000eb00ac100200000000001808900050
:102b2c000040a100100c9800180890000050a10063
:102b3c00100c9800180890000060a100100c980070
:0c2b4c00100020004f047800000006007c
:020000040000fa
:102b58009201800091018800f33f20008380ea0001
:102b6800008060000082eb0061e7af00feff3700e5
:102b780010c2ba00b000ba00010262008480ea0004
:102b880004003a008381e900f9ff310092018800ce
:0c2b9800100005009201880000000500fc
:020000040000fa
:102ba400831f7800821f7800801f7800361502008a
:102bb40000000000cf83e8007008ac00160280001b
:102bc40037027800a7027800cf1b4000cf9b480053
:102bd400e01349000610a7007008a900470052003e
:082be400d7805a000000060032
:020000040000fa
:102bf00030027800a002780097018000641842003b
:102c000060884a00950188000483e800e0824a0059
:102c100061e7af00feff37001400ba009480ba00ed
:102c2000950188001601ba009681ba0097018800c4
:082c3000000006000000000096
:020000040000fa
:102c38000202e90005003900810170000300a600c6
:102c480003003700048009003158780000000600ae
:102c58008201d1008301e9000300390003800900e3
:102c6800311878000200a7003158780000000600eb
:020000040000fa
:102c7800c800de000d003200120280004811dd009d
:102c88004460af000270a000cf1f71006200b8005e
:102c98004001b0000210200083e0af0002004000b5
:102ca8001c17020000000000809fbe000000060004
:020000040000fa
:102cb8008002eb0005087800320098004100980077
:102cc80011009800210098005300980064009800b3
:102cd800750098008080eb0001089800010028002a
:082ce80011089800000006002d
:020000040000fa
:102cf0006408e20008003200208d2000caf60700b8
:102d0000a2428000b34280008301d1000281d3003f
:102d1000c0912000a3ff07000000eb0000000600a8
:020000040000fa
:102d2000e186200001003700820078001101780060
:102d30000200e00004003200800f5100faff3a0068
:0c2d40009008780010000500000005005d
:020000040000fa
:102d4c0061e7af00feff370061c7a90000a0ef00ec
:102d5c0000a0ef009101800032a0ef00e2ff2f00f5
:0c2d6c000209bb00910188000000060075
:020000040000fa
:102d7800b1fe07000000e000060032000201fc007e
:102d8800a09520000088eb000c180200000000004d
:082d98000000fe00000006002f
:020000040000fa
:102da000b0417800b1c1510003003a000201e900ce
:102db000fbff3100000005000080eb004200af0087
:082dc0001000050000000600f0
:020000040000fa
:102dc800410920000f00a7004108200000099000d9
:102dd800c311de006701610061c079000200de00f6
:082de80061006000000006001c
:020000040000fa
:102df000a08620000000e00004003200400920000e
:102e00000000b0001030a4004200ae000000050039
:042e100010000500a9
:020000040000fa
:102e1400e5428000160020000500e00002003200b8
:102e24000500010000037800060078000000060099
:020000040000fa
:102e3800920180009101880061e7af00feff370032
:102e48009080ba001000ba009201880000000600c5
:020000040000fa
:102e580011028000c808dd004460af000170a000c6
:082e6800cf9f70000040010043
:020000040000fa
:102e70000201e900020039000280090001587800cf
:042e80000000060048
:020000040000fa
:102e840000082000cf1f70001002800000400600e0
:020000040000fa
:102e94006300b8008100d1000080d3000000060068
:020000040000fa
:0c2ea4009560a8009580a80000000600c2
:020000040000fa
:0c2eb0004800dd00cf1f7000004006004d
:020000040000fa
:020000040002f8
:04aff400ffff00005b
:020000040000fa
:020000040002f8
:04aff8009df20000c6
:020000040000fa
:020000040002f8
:04affc007f3f000093
:00000001FF
