:10000000B1C0C0C0BFC0BEC0BDC0BCC095C6BAC034
:1000100067C6B8C0B7C0B6C0B5C0B4C0B3C0B2C080
:10002000B1C0B0C0AFC0B4C6ADC0ACC0ABC0AAC058
:10003000A9C0A8C002020401002A419E3D60E5D08B
:100040003D7B142E3EBF616D3E5C8F023F20204001
:1000500010009D734E3D1A671C3DECAEBB3C69A27F
:10006000893C903EFA3B5206550658065B065E06F2
:100070006106640667066A066D0601000000001B43
:100080000502000000001E0508000000002105090F
:100090000000000026050A000000002B050B0000F0
:1000A000000030050C00000000350511000024069A
:1000B00000001200001B06000013000012060000E2
:1000C00014000009060000150000000600001600DC
:1000D00000F7050000170000EE0500002100003ABF
:1000E000053F05220000440549052300004E055345
:1000F0000524000058055D0531A3050000620532A6
:100100009F0500006705339B0500006C054100005A
:10011000950500005100000000C10552B305000024
:10012000000053A5050000000054930500000000E6
:1001300055910500000000568F0500000000617118
:10014000050000000062840500000000717C0500CD
:1001500000000072380600000000732D0600000049
:100160000007080911241FBECFEFCDBFDFE3DEBFBC
:100170002EE3A0E0BEE301C01D92A33AB207E1F76F
:100180002CD6A6C73DCF24E0829FC0011124FC01DC
:10019000EE5AFF4F6591759185919491089524E0F1
:1001A000829FC0011124FC01E75CFF4F65917591AE
:1001B0008591949108952091A000E62FF0E0E35BF3
:1001C000FF4F9491322F3077391731F09491E22F0D
:1001D000EF78E92BE093A00091E09093000696E081
:1001E00090930106662311F094E001C094E190938E
:1001F000020690E59093030695E0909305068093A0
:10020000060681E0809308068091080680FDFCCFF9
:100210008091100690911106109200060895909119
:10022000A000E82FF0E0EC5CFF4F8491292F2770AD
:10023000281731F08491E92FE87FE82BE093A000A4
:1002400081E480938006609381060895E82FF0E0B2
:10025000E050F24C9081911112C08F5F8083E09149
:100260000A3EEE2321F0F0E0E150F24C80838093CF
:100270000A3E90910B3E911102C080930B3E08956F
:100280002FB7F89480910B3E8823C1F0EFEFE80F71
:10029000F0E0DF01A050B24C9C911C92891305C084
:1002A00010920A3E10920B3E02C090930B3EEE0F4E
:1002B000FF1FEA59FF4F8591949102C080E090E0C2
:1002C0002FBF0895FC0140815181628173814F5F8E
:1002D0005F4F6F4F7F4F4083518362837383AEC5FF
:1002E0001F93CF93DF936091103E81E0860F809340
:1002F000103E162F110F110F110FC0E0D0E0612F2B
:10030000CE018B5C914C07D32F96CC33D105B9F736
:10031000DF91CF911F910895CF93DF93EC0161E0BE
:1003200087E049DFBC0180E090E0D7D524EC3DE0D8
:1003300047ED5EE338D6A2D56F87788BDF91CF91FA
:100340000895CF92DF92EF92FF920F931F93CF9376
:10035000DF93EC016D8584E02EDF8C018D8513DF4A
:100360006B017C01B80180E090E0B7D5A701960150
:100370001AD684D5698B7A8BDF91CF911F910F911B
:10038000FF90EF90DF90CF900895CF92DF92EF92A1
:10039000FF920F931F93CF93DF93EC016E8585E05F
:1003A0000ADF8C018E85EFDE6B017C01B80180E0F5
:1003B00090E093D5A7019601F6D560D56B8B7C8B29
:1003C000DF91CF911F910F91FF90EF90DF90CF9031
:1003D0000895CF92DF92EF92FF92FC0165897689B2
:1003E000653EFCE07F0710F064EE7CE080E090E08A
:1003F00074D56B017C0181E0D2DE9B01AC01C701A9
:10040000B601D1D53BD581E0FF90EF90DF90CF9042
:1004100006CF0F931F93CF93DF93EC018F589F4F1D
:1004200099D18E0103591F4FC8019CD1C759DF4F85
:10043000CE0190D140E060E0CE01A9D125ED88E069
:1004400092E0215080409040E1F7C801DF91CF91C8
:100450001F910F917FC1CF93DF93EC018B589F4F7A
:1004600089D1811110C0CF58DF4FCE017BD12AE650
:1004700084E091E0215080409040E1F700C0CE013F
:10048000DF91CF9167C1DF91CF910895CF93DF9333
:10049000EC018B589F4F6ED1882379F0CF58DF4FF6
:1004A000CE0160D125EB8CE996E021508040904050
:1004B000E1F7CE01DF91CF914DC1DF91CF9108954A
:1004C000CF93DF93EC0128DF89859A85892BA9F0EA
:1004D0008D819E81009789F02F85388928173907EB
:1004E00060F482E09BD4811104C069857A8582E042
:1004F00089D460E070E081E085D48F819885009791
:10050000B1F02F8538892817390788F081E086D423
:10051000811109C06B857C856115710511F461E05D
:1005200070E081E06FD460E070E082E06BD464E161
:1005300070E080E0DF91CF9165C42F923F924F929F
:100540005F926F927F928F929F92AF92CF92EF9233
:100550000F93CF93DF93EC01E12C00E020E043E028
:1005600060E274E08B599F4F2DD120E042E060E0C3
:1005700074E0CE0187599F4F25D121E044E060E42B
:1005800074E0CE0183599F4F1DD1EE24E39421E006
:1005900045E060E474E0CE018F589F4F13D120E016
:1005A00041E060E074E0CE018B589F4F0BD1E12C0D
:1005B00021E042E060E474E0CE0187589F4F02D111
:1005C00021E043E060E474E0CE0183589F4FFAD00D
:1005D00021E040E060E474E0CE018F579F4FF2D0FD
:1005E000EE24E39421E041E060E474E0CE0187571B
:1005F0009F4FE8D021E042E060E274E0CE018B57EB
:100600009F4FE0D0E12C20E043E060E074E0CE01B9
:1006100083579F4FD7D01E0189E2280E311C44E03A
:1006200060E274E0C1015BD12E0188E3480E511CE9
:1006300045E060E274E0C20152D13E0187E4680EF9
:10064000711C46E060E274E0C30149D14E0186E5C9
:10065000880E911C47E060E274E0C40140D18AE05A
:10066000A82E90E2C92E20E2E22E20E040E06FEFBB
:10067000C101CED120E040E06FEFC201C9D120E03E
:1006800040E06FEFC301C4D120E040E06FEFC40150
:10069000BFD181E08D878E87E0E0FAE021E134E090
:1006A00026A337A380838287E0E4F1E091E890837A
:1006B0002CEC3CE0228733878283CE014796A2D080
:1006C000CE01DF91CF910F91EF90CF90AF909F909F
:1006D0008F907F906F905F904F903F902F90F0CED3
:1006E00040E060E08B599F4F52D0E0E5F0E0808120
:1006F000897F808308950F931F93CF93DF93EC013D
:100700008C0107591F4FC8012DD040E061E0C8019E
:100710003ED004501109C80125D040E061E0C80175
:1007200036D0CE018996E9D0CE01C896E6D0CE016A
:10073000895B9F4FE2D0CE018A5A9F4FDED0E0E521
:10074000F0E08081897F82608083DF91CF911F916B
:100750000F910895DC01ED91FC91119713968C9106
:1007600085830895DC01ED91FC91119713968C918E
:1007700086830895DC01ED91FC91119720851396F5
:100780008C91922F982381E009F480E00895DC0198
:10079000ED91FC911197709612968C911297E80F3B
:1007A000F11D411102C080E001C088E08083ED911D
:1007B000FC91119713968C91662311F08183089513
:1007C00082830895EF920F93CF93DF93DB01342F51
:1007D000402FE1E0F0E0032E01C0EE0F0A94EAF7AB
:1007E000EC01688379833A83EB83EE2019F0159648
:1007F000EC9302C01696EC93622FDF91CF910F918C
:10080000EF90C5CFE0E1F8E08EEE848781EE81873E
:100810000895FF920F931F93CF93DF93EC01909174
:100820001B08892F8270F82E96FF09C090FF02C026
:10083000811102C018824AC081E0888347C097FFB7
:1008400048C0898120D22881213110F087E03FC043
:1008500031E0320F38838E01020F111DFF2099F015
:10086000213061F4009751F00596FC018591949137
:10087000009721F0FC0109958A839B83F80181810F
:1008800080931D0823C030911D08F8013183213069
:1008900019F0223071F01AC00097C1F00196FC01E6
:1008A000259134912115310589F08A81F901099545
:1008B0000DC0009759F0FC01339625913491211514
:1008C000310521F08A819B81F901099583E08093AC
:1008D0001A08DF91CF911F910F91FF90089521E0A9
:1008E00030E001C0220F4A95EAF7FC016083718372
:1008F0002283FB01268321830895FC011582118642
:1009000012861586168613861486A081B18182818F
:1009100016968C930895FC018581882309F473C091
:10092000813019F4662381F0089561115EC083302F
:10093000D9F028F4813041F0823061F0089584309C
:1009400049F1853099F1089582E08583848590E0AE
:1009500086839783828590E08383948386819781C1
:10096000009701F583E085832585211107C084E088
:100970008583838590E0868397830CC083819481EF
:10098000820F911D83839483218530E08217930722
:1009900064F1EDCF818590E0838394838681978194
:1009A000009711F001971FC085E0858326852111EE
:1009B00004C0808581110DC012C083819481821B87
:1009C000910983839483228530E0281739076CF0DE
:1009D000F0CF81508087811102C0CF018ECF82E09D
:1009E0008583848590E08683978370E023813481BA
:1009F000A081B1818281621773071CF016968C93D7
:100A0000089515968C93089521E0FC01258308959F
:100A1000AF92CF92EF920F93FC01618742872387B9
:100A20000487E586C686A08681E085830F91EF90D6
:100A3000CF90AF90089580E092E0089583E091E038
:100A400008958091031190910411089580910511EA
:100A500090910611089580910711909108110895C1
:100A60008091091190910A11089580910B11909134
:100A70000C1108958093153E9093163E0895809131
:100A8000153E9091163E08958093173E9093183E20
:100A900008958091173E9091183E08958093113EDD
:100AA0009093123E08958091113E9091123E0895C8
:100AB0008093133E9093143E08958091133E90913D
:100AC000143E089580911B3E90911C3E08958091A4
:100AD0001D3E90911E3E089580911F3E9091203EB4
:100AE0000895813019F0823021F0089585E89EE361
:100AF00002C089E89EE32ECE882319F08DE89EE39C
:100B000029CE8DE89EE32ECE813019F0823021F07F
:100B1000089585E89EE302C089E89EE323CE86E03F
:100B200095CB85E093CB84E091CB8093213E90934D
:100B3000223E83E08BCB80931A3E82E087CB80936A
:100B4000193E81E083CB80E081CB85E79EE30ADE1E
:100B500040E061E085E79EE31ADE8DE79EE3FADD83
:100B600089E79EE3FFCD8DE79EE3F4DD89E79EE311
:100B7000F9DD85E79EE3EEDD40E060E085E79EE39A
:100B800006CECF93DF9385E79EE3F4DDC82FD0E058
:100B900081E89EE3EFDD8111C26089E79EE3EADD33
:100BA000811101C0C460CE01DF91CF910895CF9330
:100BB000DF93292F30E0943060F48FE0829FE001D2
:100BC000839FD00D1124CB5CD14CCE011DDFCE0113
:100BD00002C080E090E0DF91CF910895CF93C82FBD
:100BE000E6DF009711F0FC01C087CF910895CF9305
:100BF000C82FDDDF009711F0FC01C687CF91089563
:100C0000CF93C82FD4DF009711F0FC01C587CF9197
:100C10000895CF93C82FCBDF009711F0FC01C48754
:100C2000CF910895CF93C82FC2DF009711F0FC0138
:100C3000C387CF910895CF93C82FB9DF009711F0E4
:100C4000FC01C287CF910895CF93C82FB0DF0097E2
:100C500011F0FC01C187CF910895882331F085E917
:100C60009EE378DD81E99EE37DCD81E99EE372CD4F
:100C7000882331F081E99EE36DDD85E99EE372CD45
:100C800085E99EE367CDEAE7F0E09491891741F0AA
:100C9000379691E0E136F907C1F780E090E00895DA
:100CA000CF0108958CE09EE337CB8CE09EE349CBE7
:100CB0008CE09EE36ACB8CE09EE38BCB8CE09EE3E2
:100CC000A8CB8CE09EE3C7CB8CE09EE3DFCB8CE02F
:100CD0009EE3F6CB8CE09EE303CD8CE09EE30BCD50
:100CE0001F920F920FB60F9211242F933F934F93A1
:100CF0005F936F937F938F939F93AF93BF93EF9384
:100D0000FF9380910B0A80FF06C081E080930B0A5D
:100D10008CE09EE3E5DAFF91EF91BF91AF919F9157
:100D20008F917F916F915F914F913F912F910F9094
:100D30000FBE0F901F9018951F920F920FB60F9233
:100D400011242F933F934F935F936F937F938F93D0
:100D50009F93AF93BF93EF93FF938091430180FFE5
:100D600006C081E0809343018CE09EE3ABDAFF9103
:100D7000EF91BF91AF919F918F917F916F915F9113
:100D80004F913F912F910F900FBE0F901F9018958C
:100D90001F920F920FB60F9211242F933F934F93F0
:100DA0005F936F937F938F939F93AF93BF93EF93D3
:100DB000FF9383E29EE32DDDFF91EF91BF91AF9111
:100DC0009F918F917F916F915F914F913F912F9163
:100DD0000F900FBE0F901F9018958CE09EE3ADDB37
:100DE00080915000897F80935000789480915000CA
:100DF000816080935000889543DA0097E1F3FC010D
:100E00000995FACF9FB7F894E82FF0E0EE0FFF1F97
:100E1000E356F14C608371839FBF08959FB7F894A8
:100E2000E82FF0E0EE0FFF1FE356F14C81E0208148
:100E30003181232B09F480E09FBF08950F931F9306
:100E4000CF93DF93CDE9DEE301E611E0888199815C
:100E5000009741F0019788839983892B19F4F80151
:100E60008491F4D922960F5F1F4FFEE3C33ADF0748
:100E700069F7DF91CF911F910F9108950E94B207FA
:100E800088F09F5798F0B92F9927B751B0F0E1F04B
:100E9000660F771F881F991F1AF0BA95C9F714C0FB
:100EA000B13091F00E94CC07B1E008950C94CC07CA
:100EB000672F782F8827B85F39F0B93FCCF3869534
:100EC00077956795B395D9F73EF490958095709591
:100ED00061957F4F8F4F9F4F0895E89409C097FB0E
:100EE0003EF490958095709561957F4F8F4F9F4F01
:100EF0009923A9F0F92F96E9BB279395F695879545
:100F000077956795B795F111F8CFFAF4BB0F11F407
:100F100060FF1BC06F5F7F4F8F4F9F4F16C08823AE
:100F200011F096E911C0772321F09EE8872F762FE4
:100F300005C0662371F096E8862F70E060E02AF025
:100F40009A95660F771F881FDAF7880F9695879511
:100F500097F9089557FD9058440F551F59F05F3F7A
:100F600071F04795880F97FB991F61F09F3F79F0CB
:100F700087950895121613061406551FF2CF46954D
:100F8000F1DF08C0161617061806991FF1CF8695CF
:100F90007105610508940895E894BB2766277727B3
:100FA000CB0197F908950E94E6070C9457080E9418
:100FB000490838F00E94500820F0952311F00C9455
:100FC00040080C94460811240C94CD070E94AA07EF
:100FD00070F3959FC1F3950F50E0551F629FF0018C
:100FE000729FBB27F00DB11D639FAA27F00DB11DA5
:100FF000AA1F649F6627B00DA11D661F829F22272E
:10100000B00DA11D621F739FB00DA11D621F839FB4
:10101000A00D611D221F749F3327A00D611D231F8A
:10102000849F600D211D822F762F6A2F11249F57D8
:1010300050409AF0F1F088234AF0EE0FFF1FBB1FDB
:10104000661F771F881F91505040A9F79E3F51059A
:1010500080F00C9440080C94CD075F3FE4F3983E79
:10106000D4F3869577956795B795F795E7959F5F44
:10107000C1F7FE2B880F911D9695879597F90895D6
:1010800097F99F6780E870E060E008959FEF80EC3B
:10109000089500240A9416161706180609060895DE
:1010A00000240A9412161306140605060895092E44
:1010B0000394000C11F4882352F0BB0F40F4BF2BB3
:1010C00011F460FF04C06F5F7F4F8F4F9F4F0895F3
:0410D000F894FFCFC2
:00000001FF
